:100000000C9446000C9465000C9465000C946500FB
:100010000C9465000C9465000C9465000C946500CC
:100020000C9465000C9465000C9465000C946500BC
:100030000C9465000C94DE000C9465000C94650033
:100040000C9465000C9465000C9465000C9465009C
:100050000C9465000C9465000C9465000C9465008C
:100060000C9465000C9465000C9465000C9465007C
:100070000C9465000C9465000C9465000C9465006C
:100080000C9465000C9465000C94650011241FBE4F
:10009000CFEFD0E4DEBFCDBF11E0A0E0B1E0EEE8ED
:1000A000F5E000E00BBF02C007900D92A231B1074E
:1000B000D9F721E0A2E1B1E001C01D92AF31B20752
:1000C000E1F70E949D020C94C5020C940000CF93AE
:1000D000DF9300D01F92CDB7DEB789837B836A831D
:1000E00089818A3031F48A819B81BC018DE00E9434
:1000F000670080EC90E0FC018081882F90E08072A6
:100100009927892BB1F386EC90E02981FC012083AB
:1001100080E090E00F900F900F90DF91CF910895C5
:10012000CF93DF93CDB7DEB781E890E02BE0FC0101
:10013000208388E890E02DE730E0FC0131832083C4
:100140008FE690E022E0FC01208384E890E0FC014F
:100150001182108280910E0190910F01A0911001E7
:10016000B09111018093190190931A01A0931B0182
:10017000B0931C018FE590E02FE530E0F90120817C
:100180002068FC0120830000DF91CF910895CF9378
:10019000DF93CDB7DEB781E890E0FC01108200006C
:1001A000DF91CF910895CF93DF93CDB7DEB781E094
:1001B000809318010000DF91CF9108951F920F9254
:1001C00000905F000F92112400905B000F922F931C
:1001D0003F934F935F936F937F938F939F93AF93CF
:1001E000BF93EF93FF93CF93DF93CDB7DEB78091AB
:1001F000190190911A01A0911B01B0911C01019766
:10020000A109B1098093190190931A01A0931B01D0
:10021000B0931C018091190190911A01A0911B01CA
:10022000B0911C01892B8A2B8B2B91F40E94D30057
:1002300080910E0190910F01A0911001B0911101D8
:100240008093190190931A01A0931B01B0931C0194
:100250000000DF91CF91FF91EF91BF91AF919F91FE
:100260008F917F916F915F914F913F912F910F905F
:1002700000925B000F9000925F000F901F90189506
:10028000CF93DF9300D000D0CDB7DEB769837A83F8
:100290008B839C8389819A81AB81BC8180930E0181
:1002A00090930F01A0931001B093110180910E0162
:1002B00090910F01A0911001B0911101809319014B
:1002C00090931A01A0931B01B0931C0100000F90A2
:1002D0000F900F900F90DF91CF910895CF93DF9300
:1002E000CDB7DEB780911D0190911E01823091053E
:1002F00009F18330910528F4009771F0019799F086
:10030000D1C08430910509F465C084309105A0F115
:10031000059709F483C0C6C081E090E090931E0168
:1003200080931D01C7C082E090E090931E018093EE
:100330001D01C0C081E08093160180E290E0FC01C5
:100340008081882F90E081709927892B61F4109229
:10035000120181E08093130185E090E090931E01EB
:1003600080931D01A7C01092120183E090E090934A
:100370001E0180931D019EC010921601109217015C
:1003800080E290E0FC018081882F90E081709927C5
:10039000892B51F481E08093140185E090E09093E3
:1003A0001E0180931D0183C080911201882331F4C6
:1003B00084E090E090931E0180931D0180911201D2
:1003C000813009F074C082E090E090931E01809328
:1003D0001D016DC081E08093170180E290E0FC0177
:1003E0008081882F90E081709927892B69F481E0C2
:1003F0008093150181E08093120185E090E0909355
:100400001E0180931D0156C081E08093120183E09C
:1004100090E090931E0180931D014CC080E290E01B
:10042000FC018081882F90E081709927892B39F415
:1004300085E090E090931E0180931D013AC0809169
:100440001301813041F41092130183E090E0909306
:100450001E0180931D01809114018130B1F410922E
:10046000140180911201882331F484E090E090938C
:100470001E0180931D0180911201813031F482E0D0
:1004800090E090931E0180931D01809115018130B1
:1004900081F41092150183E090E090931E01809307
:1004A0001D0107C010921E0110921D0103C0000023
:1004B00001C0000080911D0190911E0182309105C4
:1004C000B9F08330910528F4009761F1019751F05C
:1004D00030C084309105E1F08430910598F00597A3
:1004E00019F127C085E290E021E0FC01208321C0C2
:1004F000809117018823D1F485E290E021E0FC018E
:10050000208314C085E290E022E0FC01208311C02A
:1005100080911601882361F485E290E024E0FC01DB
:10052000208306C0000005C0000003C0000001C019
:1005300000000000DF91CF910895CF93DF93CDB7F6
:10054000DEB784E290E02FEFFC01208385E290E0AB
:10055000FC01108281E290E0FC01108282E290E0D6
:100560002FEFFC0120836CE271E080E090E00E94BC
:1005700040010E9490000E946E01000080911801CD
:0E0580008823E1F310921801F6CFF894FFCF14
:10058E0000000002000000006700000000000100F3
:02059E0000005B
:00000001FF
