:100000000C9446000C9465000C9465000C946500FB
:100010000C9465000C9465000C9465000C946500CC
:100020000C9465000C9465000C9465000C946500BC
:100030000C9465000C94DE000C9465000C94650033
:100040000C9465000C9465000C9465000C9465009C
:100050000C9465000C9465000C9465000C9465008C
:100060000C9465000C9465000C9465000C9465007C
:100070000C9465000C9465000C9465000C9465006C
:100080000C9465000C9465000C94650011241FBE4F
:10009000CFEFD0E4DEBFCDBF11E0A0E0B1E0E2EAF7
:1000A000F6E000E00BBF02C007900D92A231B1074D
:1000B000D9F721E0A2E1B1E001C01D92AB31B20756
:1000C000E1F70E941B030C944F030C940000CF93A4
:1000D000DF9300D01F92CDB7DEB789837B836A831D
:1000E00089818A3031F48A819B81BC018DE00E9434
:1000F000670080EC90E0FC018081882F90E08072A6
:100100009927892BB1F386EC90E02981FC012083AB
:1001100080E090E00F900F900F90DF91CF910895C5
:10012000CF93DF93CDB7DEB781E08093120100005B
:10013000DF91CF910895CF93DF93CDB7DEB781E8FC
:1001400090E02BE0FC01208388E890E02DE730E090
:10015000FC01318320838FE690E022E0FC012083C4
:1001600084E890E0FC011182108280910E01909150
:100170000F01A0911001B091110180931301909390
:100180001401A0931501B09316018FE590E02FE5BF
:1001900030E0F90120812068FC0120830000DF911C
:1001A000CF910895CF93DF93CDB7DEB781E890E08C
:1001B000FC0110820000DF91CF9108951F920F92F1
:1001C00000905F000F92112400905B000F922F931C
:1001D0003F934F935F936F937F938F939F93AF93CF
:1001E000BF93EF93FF93CF93DF93CDB7DEB78091AB
:1001F000130190911401A0911501B091160101977E
:10020000A109B1098093130190931401A0931501E2
:10021000B09316018091130190911401A0911501E2
:10022000B0911601892B8A2B8B2B91F40E949000A0
:1002300080910E0190910F01A0911001B0911101D8
:100240008093130190931401A0931501B0931601AC
:100250000000DF91CF91FF91EF91BF91AF919F91FE
:100260008F917F916F915F914F913F912F910F905F
:1002700000925B000F9000925F000F901F90189506
:10028000CF93DF9300D000D0CDB7DEB769837A83F8
:100290008B839C8389819A81AB81BC8180930E0181
:1002A00090930F01A0931001B093110180910E0162
:1002B00090910F01A0911001B09111018093130151
:1002C00090931401A0931501B093160100000F90B4
:1002D0000F900F900F90DF91CF910895CF93DF9300
:1002E000CDB7DEB78091190190911A018230910546
:1002F00009F48AC08330910530F4009761F00197CA
:1003000009F443C06FC18330910509F4D3C0049749
:1003100009F426C167C180911801813099F485E202
:1003200090E0FC018081893038F485E290E0FC01A6
:1003300020812F5FFC01208382E090E090931A01DE
:100340008093190180911801823099F485E290E040
:10035000FC018081882339F085E290E0FC01208156
:100360002150FC01208383E090E090931A01809358
:10037000190180911801833009F033C181E090E0C8
:1003800090931A01809319012CC18091180181303A
:1003900099F485E290E0FC018081893038F485E2AF
:1003A00090E0FC0120812F5FFC01208382E090E03F
:1003B00090931A0180931901809118018230A1F461
:1003C00085E290E0FC018081882339F085E290E0AD
:1003D000FC0120812150FC01208383E090E0909378
:1003E0001A0180931901FEC080911801833039F4FD
:1003F00081E090E090931A0180931901F3C010926C
:100400001A0110921901EEC0809118018230B1F4E6
:1004100085E290E0FC018081882339F085E290E05C
:10042000FC0120812150FC0120831092170183E000
:1004300090E090931A0180931901D4C08091180123
:10044000833049F481E090E090931A018093190180
:1004500010921701C7C080911801882339F484E0F5
:1004600090E090931A0180931901BCC0809118010B
:100470008130D1F4809117018A30B1F485E290E0A7
:10048000FC018081893038F485E290E0FC01208114
:100490002F5FFC01208382E090E090931A0180930B
:1004A0001901109217019EC0809117018F5F8093F0
:1004B000170198C0809118018130B1F485E290E075
:1004C000FC018081893038F485E290E0FC012081D4
:1004D0002F5FFC0120831092170182E090E090933F
:1004E0001A01809319017EC080911801833049F46C
:1004F00081E090E090931A01809319011092170106
:1005000071C080911801882339F484E090E09093C1
:100510001A018093190166C0809118018230D1F4CC
:10052000809117018A30B1F485E290E0FC0180816E
:10053000882339F085E290E0FC0120812150FC0104
:10054000208383E090E090931A0180931901109228
:10055000170148C0809117018F5F8093170142C037
:1005600080911801813099F485E290E0FC0180814E
:10057000893038F485E290E0FC0120812F5FFC0196
:10058000208382E090E090931A018093190180917A
:1005900018018230A1F485E290E0FC01808188237B
:1005A00039F085E290E0FC0120812150FC0120839C
:1005B00083E090E090931A018093190113C0809119
:1005C0001801833039F481E090E090931A01809310
:1005D000190108C084E090E090931A0180931901FA
:1005E00001C000008091190190911A01823091059B
:1005F000C9F08330910528F4009749F0019769F01C
:1006000016C08330910581F0049781F010C085E217
:1006100090E027E0FC0120830AC085E290E0FC0125
:10062000108205C0000003C0000001C000000000EF
:10063000DF91CF910895CF93DF93CDB7DEB781E2FD
:1006400090E0FC01108282E290E02FEFFC01208319
:1006500084E290E02FEFFC01208385E290E0FC0132
:10066000108264E670E080E090E00E9440010E9409
:100670009B0010921A011092190180E290E0FC0197
:10068000808180958370809318010E946E01000024
:10069000809112018823E1F310921201EECFF894B9
:0206A000FFCF8A
:1006A20000000002000000006700000000000100DE
:0206B200000046
:00000001FF
